S0190000456C617374696361725F50726F6A6563742E737265633D
S113000045C0000053C0000051C000004FC00000B4
S11300104DC000004BC0000049C0000047C00000B4
S113002045C0000043C0000041C000003FC00000C4
S11300303DC000003BC0000039C0000037C00000D4
S113004035C0000033C0000031C000002FC00000E4
S11300502DC000002BC0000029C0000027C00000F4
S113006025C0000023C0000021C000001FC0000004
S11300701DC000001BC0000019C0000017C0000014
S113008015C0000013C0000011C0000011241FBEE1
S1130090CFEFD0E1DEBFCDBF21E0A0E0B1E001C0F1
S11300A01D92A330B207E1F741D0EFC2A9CF88E98E
S11300B08AB986E08093950087E689B908955D9BA7
S11300C0FECF8CB908955F9BFECF8CB1089581BF9C
S11300D0089587B3806187BB84B3816084BB84B394
S11300E0826084BB84B3846084BB84B3886084BB33
S11300F089E683BF11BE089585B3816085BB85B34E
S11301008D7F85BB85B3846085BB85B3877F85BBC5
S1130110089585B3826085BB85B38E7F85BB85B327
S1130120886085BB85B38B7F85BB0895C0DF4DD0C8
S1130130D0DFCED0C8DF80930201C5DFC0DFD3D0CB
S1130140909301018093000101970F9708F4E1DF78
S113015080910201853669F128F48236C1F0833634
S113016071F1E8CF863619F0833709F1E3CF8DE7D3
S113017090E09BBD8ABDC6E8D0E0998388838AB5A8
S11301809BB571D08881998171D075D0D3CF86E920
S113019090E09BBD8ABDC6E8D0E0998388838AB588
S11301A09BB561D08881998161D074D0C3CF81D04F
S11301B0C1CF8FE781BF81B78ADF9EDFBBCF8FE7D7
S11301C081BF81B784DFA5DFB5CF84B3806184BBF1
S11301D0E1E6F0E080818061808387B3806287BB41
S11301E084B3806484BB80818064808382B18860AE
S11301F082B98FB582608FBD8FB580688FBD8EB593
S113020088608EBD8EB580618EBD8EB582608EBDD8
S11302108EB581608EBD2FEF30E037BD26BD1BBC8F
S11302201ABCEBE8F0E08081826080838081816089
S11302308083808180688083EAE8F0E08081806147
S113024080838081886080838081826080838081D4
S11302508160808330938100209380001092870016
S11302601092860008959BBD8ABD089590938700DF
S113027080938600089585B3806185BBE2E6F0E053
S113028080818F7E808385B3806485BB80818F7BF2
S11302908083089585B38F7E85BBE2E6F0E080819C
S11302A08061808385B38F7B85BB808180648083FC
S11302B0089585B3806185BBE2E6F0E080818061CA
S11302C0808385B3806485BB808180648083089546
S11302D080E281BB8BEF8ABB8EB582608EBD8EB50A
S11302E081608EBD089582B38F7D82BB8FE99FE0CC
S11302F00197F1F700C0000082B3806282BB8FE3F4
S11303009CE90197F1F700C0000082B38F7D82BBA6
S11303101DBC1CBC05C08CB59DB5893E9D4F68F5C0
S113032089B38C70C1F31DBC1CBC08C08CB59DB5D1
S1130330893E9D4F18F01DBC1CBC03C089B38C7052
S1130340A9F76CB57DB580E090E0AED020E034E252
S113035044E759E437D120E030E040E852E432D1B8
S113036020E034E244E75BE40BD020E030E048E6F0
S113037052E406D06DD0CB01089580E090E008955A
S11303800CD0E6C0DED040F0D5D030F021F45F3F91
S113039019F0C7C0511110C1CAC0EBD098F399230A
S11303A0C9F35523B1F3951B550BBB27AA27621735
S11303B07307840738F09F5F5F4F220F331F441F7A
S11303C0AA1FA9F333D00E2E3AF0E0E830D09150B2
S11303D05040E695001CCAF729D0FE2F27D0660F9F
S11303E0771F881FBB1F261737074807AB07B0E8DE
S11303F009F0BB0B802DBF01FF2793585F4F2AF0F4
S11304009E3F510568F08DC0D7C05F3FECF3983E26
S1130410DCF3869577956795B795F7959F5FC9F750
S1130420880F911D9695879597F90895E1E0660FD9
S1130430771F881FBB1F621773078407BA0720F052
S1130440621B730B840BBA0BEE1F88F7E0950895BB
S113045098D088F09F5790F0B92F9927B751A0F002
S1130460D1F0660F771F881F991F1AF0BA95C9F744
S113047012C0B13081F09FD0B1E008959CC0672FC5
S1130480782F8827B85F39F0B93FCCF386957795F4
S11304906795B395D9F73EF49095809570956195DD
S11304A07F4F8F4F9F4F0895E89409C097FB3EF408
S11304B090958095709561957F4F8F4F9F4F9923AD
S11304C0A9F0F92F96E9BB279395F695879577952B
S11304D06795B795F111F8CFFAF4BB0F11F460FFEB
S11304E01BC06F5F7F4F8F4F9F4F16C0882311F043
S11304F096E911C0772321F09EE8872F762F05C057
S1130500662371F096E8862F70E060E02AF09A95F1
S1130510660F771F881FDAF7880F9695879597F9E6
S1130520089597F99F6780E870E060E008959FEF71
S113053080EC089500240A94161617061806090676
S1130540089500240A941216130614060506089545
S1130550092E0394000C11F4882352F0BB0F40F4CD
S1130560BF2B11F460FF04C06F5F7F4F8F4F9F4F0D
S1130570089557FD9058440F551F59F05F3F71F08F
S11305804795880F97FB991F61F09F3F79F08795F6
S11305900895121613061406551FF2CF4695F1DF7F
S11305A008C0161617061806991FF1CF869571050F
S11305B0610508940895E894BB2766277727CB0143
S11305C097F908950BD0C4CFB5DF28F0BADF18F03F
S11305D0952309F0A6CFABCF1124EECFCADFA0F349
S11305E0959FD1F3950F50E0551F629FF001729FC4
S11305F0BB27F00DB11D639FAA27F00DB11DAA1FE3
S1130600649F6627B00DA11D661F829F2227B00D2F
S1130610A11D621F739FB00DA11D621F839FA00DBA
S1130620611D221F749F3327A00D611D231F849F0A
S1130630600D211D822F762F6A2F11249F57504061
S11306408AF0E1F088234AF0EE0FFF1FBB1F661FFC
S1130650771F881F91505040A9F79E3F510570F0B5
S113066060CFAACF5F3FECF3983EDCF38695779595
S11306706795B795F795E7959F5FC1F7FE2B880FB0
S1110680911D9695879597F90895F894FFCFEC
S9030000FC
